:020000040800F2
:10000000C80700204D0200087B1200087312000888
:1000100077120008FD0200085116000800000000D9
:10002000000000000000000000000000B7120008FF
:100030000103000800000000B51200087113000859
:1000400067020008670200086702000867020008EC
:1000500067020008670200086702000867020008DC
:1000600067020008670200086702000867020008CC
:1000700067020008670200086702000867020008BC
:1000800067020008670200086702000867020008AC
:10009000670200086702000867020008670200089C
:1000A000670200086702000867020008670200088C
:1000B000670200086702000867020008670200087C
:1000C000670200086702000867020008670200086C
:1000D00067020008011600086702000867020008AE
:1000E000670200086702000867020008670200084C
:1000F000670200086702000867020008670200083C
:10010000670200086702000867020008670200082B
:100110006702000867020008DD1300086702000894
:10012000670200086702000867020008670200080B
:1001300067020008670200086702000867020008FB
:1001400067020008670200086702000867020008EB
:1001500067020008670200086702000867020008DB
:1001600067020008670200086702000867020008CB
:10017000670200086702000867020008000000002C
:1001800067020008670200086702000867020008AB
:10019000670200086702000867020008670200089B
:1001A00067020008670200086702000800F002F812
:1001B00000F03CF80AA090E8000C82448344AAF1C5
:1001C0000107DA4501D100F031F8AFF2090EBAE8C3
:1001D0000F0013F0010F18BFFB1A43F0010318477B
:1001E0002415000044150000103A24BF78C878C1D7
:1001F000FAD8520724BF30C830C144BF04680C602D
:10020000704700000023002400250026103A28BF74
:1002100078C1FBD8520728BF30C148BF0B60704778
:100220001FB501F061FA1FBD10B510BD00F033F825
:100230001146FFF7F5FF01F00FFA00F051F803B493
:10024000FFF7F2FF03BC01F005FA00000948804700
:1002500009480047FEE7FEE7FEE7FEE7FEE7FEE7A8
:10026000FEE7FEE7FEE7FEE704480549054A064BC0
:100270007047000079130008AD010008C801002094
:10028000C8070020C8030020C8030020704770473B
:10029000704770477047754600F02CF8AE46050071
:1002A0006946534620F00700854618B020B5FFF791
:1002B000DBFFBDE820404FF000064FF000074FF095
:1002C00000084FF0000B21F00701AC46ACE8C00974
:1002D000ACE8C009ACE8C009ACE8C0098D4670477D
:1002E00010B50446AFF300802046BDE81040FFF78C
:1002F000A6BF0000004870476401002000BFFEE771
:10030000704701B500BF0098411E00910028FAD146
:1003100008BD0000F8B502460B4600250024002069
:100320000021E6E0012606FA01F51E6806EA05044A
:10033000AC4273D15E68022E02D05E68122E13D1D9
:10034000CF0802F1200656F827004E07F70E0F26B9
:10035000BE40B0434F07FF0E1E69BE403043CF087A
:1003600002F1200646F8270010684F000326BE4021
:10037000B0431E7906F003064F00BE4030431060C4
:100380005E68012E08D05E68022E05D05E68112ED0
:1003900002D05E68122E13D190684F000326BE4033
:1003A000B0434F00DE68BE40304390605068012685
:1003B0008E40B0431E79C6F300168E403043506025
:1003C000D0684F000326BE40B0434F009E68BE4039
:1003D0003043D0605E6806F08056B6F1805FA8D1E9
:1003E00000BF00260096454E366846F48046434FCF
:1003F0003E603E46366806F48046009600BF00BF69
:100400003F4E8F0856F827008E07370F0F26BE4045
:10041000B0433C4EB24202D100262EE068E03A4E94
:10042000B24201D1012628E0384EB24201D1022663
:1004300023E0374EB24201D103261EE0354EB242D0
:1004400001D1042619E0344EB24201D1052614E050
:10045000324EB24201D106260FE0314EB24201D1F6
:1004600007260AE02F4EB24201D1082605E02E4EA3
:10047000B24201D1092600E00A268F073F0FBE4095
:1004800030431F4E8F0846F82700284E3068A0439F
:100490005E6806F48036B6F5803F00D12043234ED7
:1004A0003060361D3068A0435E6806F40036B6F54D
:1004B000003F00D120431D4E361D3060361D306890
:1004C000A0435E6806F48016B6F5801F00D1204375
:1004D000164E08363060361D3068A0435E6806F45C
:1004E0000016B6F5001F00D12043104E0C363060C8
:1004F000491C1029FFF416AFF8BD00004438024033
:100500000838014000000240000402400008024098
:10051000000C02400010024000140240001802408B
:10052000001C02400020024000240240003C014028
:100530000AB1816101E00B048361704701480068E2
:10054000704700000000002002480068401C01497C
:10055000086070470000002010B50D48006840F4A6
:1005600000700B4908600846006840F4806008602D
:100570000846006840F480700860052000F0A2F88A
:100580000F2000F007F800F051F8002010BD000027
:10059000003C0240F0B587B0054600260027002247
:1005A0002946362000F050F8362000F040F800BF11
:1005B000002000901948006840F0100017490860BA
:1005C0000846006800F01000009000BF00BF01A9BD
:1005D00002A800F0AFF9059E1EB900F0E9F9044643
:1005E00002E000F0E5F944000D48B4FBF0F0471ECE
:1005F0000C480D49086040F2E7310B48C160476084
:1006000000210161816000F013FC20B9064800F070
:100610002AFC07B0F0BD0120FBE700004038024093
:1006200040420F000010004020000020704700BF33
:1006300000F01F02012191404209920002F1E022E4
:10064000C2F8001100BF70472DE9F05F80460D46EB
:100650001646002700F012FE074639462A46334662
:1006600001F00700C0F1070ABAF1040F02D94FF0F8
:10067000040A01E0C0F1070AD14600F1040ABAF108
:10068000070F02D24FF0000A01E0A0F1030AD4469E
:100690004FF0010A0AFA09FAAAF1010A0AEA020A63
:1006A0000AFA0CFA4FF0010B0BFA0CFBABF1010B41
:1006B0000BEA030B4AEA0B042146404600F0E6FD34
:1006C000BDE8F09F00BF00F00702064B19684FF627
:1006D000FF031940044B0B4343EA0221014B19600D
:1006E00000BF70470CED00E00000FA0538B50024AB
:1006F00000BF002000902348006840F0805021494E
:1007000008600846006800F08050009000BF00BFFD
:100710000120010491FAA1F1B1FA81F11A4A42F8DB
:100720002100FFF70BFF044607E0FFF707FF001B60
:10073000B0F57A7F01D9032038BD1448406800F431
:100740008030B0F5803FF0D10120410491FAA1F151
:10075000B1FA81F10C4A42F82100FFF7EFFE04469E
:1007600007E0FFF7EBFE001BB0F57A7F01D903200D
:10077000E2E70648406800F40030B0F5003FF0D1F1
:100780000020D9E74038024000000E4200700040CF
:1007900070B504460D4600266448006800F00F005E
:1007A000A84209D261490D700846006800F00F00A8
:1007B000A84201D0012070BD207800F0020002287C
:1007C00007D15B48006820F0F000A1680843584951
:1007D0000860207800F00100002877D060680128C8
:1007E00007D1534808380068C0F34040B8B9012029
:1007F000E1E76068022802D06068032807D14C480E
:1008000008380068C0F3406048B90120D3E7484881
:1008100008380068C0F3400008B90120CBE744481D
:10082000006820F003006168084341490860FFF751
:1008300085FE06466068012810D108E0FFF77EFEBD
:10084000801B41F28831884201D90320B3E7384840
:10085000006800F00C000428F0D137E0606802283E
:1008600010D108E0FFF76AFE801B41F28831884210
:1008700001D903209FE72E48006800F00C000828EB
:10088000F0D123E06068032810D108E0FFF756FE9E
:10089000801B41F28831884201D903208BE724482C
:1008A000006800F00C000328F0D10FE008E0FFF72B
:1008B00045FE801B41F28831884201D903207AE746
:1008C0001B48006800F00C000028F0D117480068B1
:1008D00000F00F00A84209D914490D7008460068BD
:1008E00000F00F00A84201D0012064E7207800F05A
:1008F0000400042807D10E48006820F4E050E168A5
:1009000008430B490860207800F00800082808D147
:100910000748006820F46040216940EAC1000449AA
:1009200008600F20FFF736FE002044E7003C02403D
:10093000083802400F2202600D4A126802F00302DA
:1009400042600B4A126802F0F0028260084A1268A4
:1009500002F4E052C260064A126802F46042D20811
:100960000261044A126802F00F020A607047000038
:1009700008380240003C024010B500F02FF8094949
:10098000096801F0F001F02292FAA2F2B2FA82F2C2
:10099000D140054A515CC8400449086008460068D7
:1009A00010BD000008380240F216000804000020C4
:1009B00010B5FFF7E1FF0749096801F4E0514FF472
:1009C000E05292FAA2F2B2FA82F2D140024A515CAB
:1009D000C84010BD08380240F216000870B500216A
:1009E000002200230020274C246804F00C0424B1CA
:1009F000042C04D0082C41D103E0234840E02348D4
:100A00003EE0204C241F246804F03F011D4C241FAD
:100A1000246804F4800484B11C4CB4FBF1F5194C37
:100A2000241F246847F6C076344096FAA6F6B6FA34
:100A300086F6F44005FB04F20FE0134CB4FBF1F52D
:100A4000104C241F246847F6C076344096FAA6F668
:100A5000B6FA86F6F44005FB04F20A4C241F24681B
:100A600004F440344FF4403595FAA5F5B5FA85F510
:100A7000EC40641C6300B2FBF3F001E0024800BFED
:100A800000BF70BD083802400024F40040787D01AA
:100A900038B504460025207800F00100002848D031
:100AA000DE48006800F00C0004280DD0DB48006828
:100AB00000F00C00082811D1D848001F006800F48D
:100AC0008000B0F5800F09D1D44808380068C0F321
:100AD000404070B3606860BB012038BD2079CF49C9
:100AE000891F0870606890B1FFF728FD054606E091
:100AF000FFF724FD401B642801D90320EDE7C74818
:100B000008380068C0F340400028F1D011E0FFF73A
:100B100015FD054606E0FFF711FD401B642801D9CD
:100B20000320DAE7BD4808380068C0F340400028D9
:100B3000F1D1207800F00200022869D1B74800689E
:100B400000F00C0058B1B548006800F00C0008280F
:100B500021D1B248001F006800F48000D8B9AF4826
:100B600008380068C0F3400020B1E068012801D0D7
:100B70000120B2E7A9480838006820F0F800F82200
:100B800092FAA2F2B2FA82F2216991400843A34993
:100B9000083908603CE0E06828B30120A0490860FB
:100BA000FFF7CCFC054606E0FFF7C8FC401B022817
:100BB00001D9032091E7994808380068C0F3400044
:100BC0000028F1D095480838006820F0F800F82295
:100BD00092FAA2F2B2FA82F22169914008438F4957
:100BE0000839086014E000208D490860FFF7A6FC72
:100BF000054606E0FFF7A2FC401B022801D90320AE
:100C00006BE7864808380068C0F340000028F1D13F
:100C1000207800F0080008282CD16069A8B10120D4
:100C200080490860FFF78AFC054606E0FFF786FC6E
:100C3000401B022801D903204FE778486C30006838
:100C4000C0F340000028F1D014E00020754908608E
:100C5000FFF774FC054606E0FFF770FC401B022816
:100C600001D9032039E76D486C300068C0F34000BB
:100C70000028F1D1207800F00400042857D100BFEB
:100C80000020009065483830006840F0805063498B
:100C9000383108600846006800F08050009000BFBE
:100CA00000BF6148006840F480705F490860FFF74A
:100CB00045FC054606E0FFF741FC401B022801D930
:100CC00003200AE75848006800F480700028F2D03A
:100CD000207A524968310870A068A0B1FFF72EFC55
:100CE000054608E0FFF72AFC401B41F288318842A4
:100CF00001D90320F1E6494868300068C0F340009C
:100D00000028EFD013E0FFF719FC054608E0FFF7D5
:100D100015FC401B41F28831884201D90320DCE6F2
:100D20003E4868300068C0F340000028EFD1A06959
:100D3000F0B33A48006800F00C00082869D0A069B8
:100D4000022850D1002036490866FFF7F7FB054618
:100D500006E0FFF7F3FB401B022801D90320BCE6A5
:100D60002E4808380068C0F340600028F1D1D4E96B
:100D70000701084347F6C07292FAA2F2B2FA82F271
:100D8000616A914008430122A16AC2EB51014FF40C
:100D9000403292FAA2F2B2FA82F2914008434FF046
:100DA000706292FAA2F2B2FA82F2E16A914000E035
:100DB00031E008431949091F0860012018490866F5
:100DC000FFF7BCFB054606E0FFF7B8FB401B022817
:100DD00001D9032081E6114808380068C0F340605B
:100DE0000028F1D017E000200D490866FFF7A6FBA8
:100DF000054606E0FFF7A2FB401B022801D90320AD
:100E00006BE6064808380068C0F340600028F1D15E
:100E100001E0012061E600205FE6000008380240A2
:100E200000004742800E4742007000407047704704
:100E300010B504460CB9012010BD94F8390028B94A
:100E4000002084F83800204600F00CF8022084F8D6
:100E50003900211D206800F0C9FA012084F839000A
:100E60000020E9E7704701460868C06840F00100CB
:100E70000A68D0600868006840F001000A681060E5
:100E800000207047704710B5044620680069C0F321
:100E90004000D8B12068C068C0F34000B0B16FF026
:100EA000020021680861012020762068806900F036
:100EB000030018B12046FFF7E5FF05E0204600F0EB
:100EC000ADF8204600F0ABF80020207620680069DD
:100ED000C0F38000D8B12068C068C0F38000B0B112
:100EE0006FF0040021680861022020762068806984
:100EF00000F4407018B12046FFF7C4FF05E020461B
:100F000000F08CF8204600F08AF800202076206857
:100F10000069C0F3C000D8B12068C068C0F3C00049
:100F2000B0B16FF0080021680861042020762068C5
:100F3000C06900F0030018B12046FFF7A3FF05E0E9
:100F4000204600F06BF8204600F069F8002020767B
:100F500020680069C0F30010D8B12068C068C0F3F1
:100F60000010B0B16FF010002168086108202076F1
:100F70002068C06900F4407018B12046FFF782FF76
:100F800005E0204600F04AF8204600F048F800202E
:100F900020762068006900F0010058B12068C06820
:100FA00000F0010030B16FF00100216808612046B7
:100FB00000F036F820680069C0F3C01058B120680E
:100FC000C068C0F3C01030B16FF0800021680861C4
:100FD0002046FFF72BFF20680069C0F3801058B14E
:100FE0002068C068C0F3801030B16FF04000216805
:100FF0000861204600F019F820680069C0F340102D
:1010000058B12068C068C0F3401030B16FF02000C4
:10101000216808612046FFF70AFF10BD704770473E
:1010200010B50446FFF790FA10BD704770470146AF
:101030000022002391F8392091F83A3042EA030067
:101040007047F8B50446002500262068006800F0C7
:1010500001052068C06800F480767DB176B100BFDC
:101060000020009020680068009020684068009090
:1010700000BF00BFE06B40F00100E0632068006843
:10108000C0F340052068406900F001067DB176B1EB
:1010900000BF002000902068006800902068406831
:1010A000009000BF00BFE06B40F00400E0632068E8
:1010B0000068C0F380052068406900F001067DB13A
:1010C00076B100BF00200090206800680090206882
:1010D0004068009000BF00BFE06B40F00200E0639A
:1010E00020680068C0F3C0052068406900F0010670
:1010F0007DB176B100BF00200090206800680090AC
:1011000020684068009000BF00BFE06B40F008001E
:10111000E06320680068C0F340152068C06800F0F4
:1011200020061DB116B1204600F0E2F920680068E3
:10113000C0F3C0152068C06800F080061DB116B16C
:10114000204600F028FA20680068C0F38015206867
:10115000C06800F040061DB116B1204600F0B8F995
:10116000E06B38B1202084F8390084F83A0020463A
:10117000FFF75CFFF8BD10B5034693F83A0020284E
:101180002FD101B10AB9012010BD00BF93F838007A
:10119000012801D10220F7E7012083F8380000BFC1
:1011A00099629A85DA850020D863222083F83A0074
:1011B0001868C06840F480701C68E0601868406976
:1011C00040F001001C68606100BF002083F8380017
:1011D00000BF1868C06840F020001C68E060002074
:1011E000D2E70220D0E700001D4A0168914236D1C3
:1011F0001C49098801F4004189BB1A49098801F496
:10120000804171B1184909780A2903D00021154A93
:10121000118024E01349098841F40041114A1180EA
:101220001DE0114909780D2906D10E49098841F4BC
:1012300080410C4A118012E00B490978094A128852
:10124000C2F30D02094B995406490988491C054A05
:10125000118011460988C72901DD002111807047DE
:10126000001001401C0000201E0000205C00002037
:10127000704700BFFEE700BFFEE770470248006806
:10128000C0F30220704700000CED00E010B500280C
:1012900007DA0A07140E054A00F00F031B1FD45487
:1012A00003E00A07130E024A135410BD18ED00E0C4
:1012B00000E400E0704770472DE9F04192B0054628
:1012C000884616461F46002400BF0020009026488E
:1012D000006840F08050244908600846006800F02B
:1012E0008050009000BF00BF00BF002000901F484A
:1012F000006840F440401D4908600846006800F45A
:101300004040009000BF00BF0120069007900220DF
:101310000C9041050D91CDF838800F9510961197DE
:1013200006A8FFF7B5FB04460CB100BFFEE7FFF7C8
:10133000DDF904460CB100BFFEE70F20019002204A
:101340000290002003904FF4A05004904FF480507E
:101350000590052101A8FFF71BFA04460CB100BF58
:10136000FEE712B0BDE8F081403802400070004056
:1013700010B5FFF7E9F810BD1448006840F470009C
:10138000124908601248006840F0010010490860E6
:1013900000200F49083108600D4800680D490840D9
:1013A0000B4908600C48091D0860081F006820F4FC
:1013B0008020091F0860002005490C3108604FF0AB
:1013C00000600249803908607047000088ED00E045
:1013D00000380240FFFFF6FE1030002410B502482E
:1013E000FFF751FD10BD0000200000200022026820
:1013F0002C4B98420ED0B0F1804F0BD02A4B984224
:1014000008D02A4B984205D0294B984202D0294B4C
:10141000984201D1012300E000231BB122F07002A9
:101420004B681A431F4B984220D0B0F1804F1DD01B
:101430001D4B98421AD01D4B984217D01C4B984216
:1014400014D01C4B984211D01B4B98420ED01B4B12
:1014500098420BD01A4B984208D01A4B984205D0AC
:10146000194B984202D0194B984201D1012300E058
:1014700000231BB122F44072CB681A4302608B68D0
:10148000C3620B688362074B984202D0094B9842B3
:1014900001D1012300E000230BB10B690363012399
:1014A0004361704700000140000400400008004014
:1014B000000C004000040140004001400044014095
:1014C0000048014000180040001C0040002000407F
:1014D00010B504462068C06820F040002168C8604C
:1014E000202084F839002046FFF7C2FE002010BDFE
:1014F00070B5044694F83A0022284AD1A068B0F5A5
:10150000805F13D1A56A206940B920684068C0F3A4
:1015100008002880A06A801CA06219E0206840684A
:10152000C0B22880A06A401CA06211E0206938B9CE
:1015300020684068C1B2A26A501CA062117007E026
:101540002068406800F07F01A26A501CA062117000
:10155000E08D401E80B2E085C8B92068C06820F0E8
:1015600020002168C8602068C06820F4807021686D
:10157000C8602068406920F001002168486120208F
:1015800084F83A002046FFF72FFE002070BD0020AF
:10159000FCE70220FAE7014691F8390021282CD116
:1015A0008868B0F5805F0FD10A6A1088C0F3080020
:1015B0000B685860086918B9086A801C086209E05D
:1015C000086A401C086205E00B6A581C086218781B
:1015D0000B685860C88C401E80B2C88458B908682F
:1015E000C06820F080000B68D8600868C06840F0D0
:1015F00040000B68D860002070470220FCE7000024
:1016000070B500240F4D1048FFF71BFD00BF03E02D
:10161000641CAC4200D904E00B48FFF708FD202809
:10162000F6D100BF002403E0641CAC4200D906E000
:10163000012206490448FFF79EFD0028F4D100BFAF
:1016400070BD0000FFFF0100240100201E000020EB
:1016500000BFFEE700BF704786B0FEF77DFF08239E
:10166000022219214FF4B470FFF726FE00BF0020BC
:1016700000901A48006840F00200184908600846C7
:10168000006800F00200009000BF00BF032001903E
:101690000120029003900320049001A91048FEF756
:1016A00039FE19E0012211460D48FEF741FF0122E3
:1016B00002210B48FEF73CFF0A48FEF722FE0022FB
:1016C00001210748FEF734FF002202210448FEF7FB
:1016D0002FFF0448FEF715FEE4E700003038024013
:1016E00000040240FFFF7F004FF04070E1EE100A5F
:1016F0007047000000000102030401020304060712
:101700000809000024170008000000202000000045
:10171000E80100084417000820000020A807000086
:1017200004020008000000000024F4000000000093
:101730000000000001020304060708090000000081
:0417400000000000A5
:04000005080001AD41
:00000001FF
