:020000040800F2
:10000000880700204D020008170E0008130E000894
:10001000150E0008FD02000869100008000000002D
:100020000000000000000000000000003B0E00087F
:10003000FF02000800000000390E0008C10E000891
:1000400067020008670200086702000867020008EC
:1000500067020008670200086702000867020008DC
:1000600067020008670200086702000867020008CC
:1000700067020008670200086702000867020008BC
:1000800067020008670200086702000867020008AC
:10009000670200086702000867020008670200089C
:1000A000670200086702000867020008670200088C
:1000B000670200086702000867020008670200087C
:1000C000670200086702000867020008670200086C
:1000D0006702000825100008670200086702000890
:1000E000670200086702000867020008670200084C
:1000F000670200086702000867020008670200083C
:10010000670200086702000867020008670200082B
:10011000670200086702000867020008670200081B
:10012000670200086702000867020008670200080B
:1001300067020008670200086702000867020008FB
:1001400067020008670200086702000867020008EB
:1001500067020008670200086702000867020008DB
:1001600067020008670200086702000867020008CB
:10017000670200086702000867020008000000002C
:1001800067020008670200086702000867020008AB
:10019000670200086702000867020008670200089B
:1001A00067020008670200086702000800F002F812
:1001B00000F03CF80AA090E8000C82448344AAF1C5
:1001C0000107DA4501D100F031F8AFF2090EBAE8C3
:1001D0000F0013F0010F18BFFB1A43F0010318477B
:1001E000900F0000B00F0000103A24BF78C878C10B
:1001F000FAD8520724BF30C830C144BF04680C602D
:10020000704700000023002400250026103A28BF74
:1002100078C1FBD8520728BF30C148BF0B60704778
:100220001FB500F097FF1FBD10B510BD00F033F8EB
:100230001146FFF7F5FF00F04BFF00F051F803B453
:10024000FFF7F2FF03BC00F010FF000009488047F1
:1002500009480047FEE7FEE7FEE7FEE7FEE7FEE7A8
:10026000FEE7FEE7FEE7FEE704480549054A064BC0
:1002700070470000C50E0008AD010008880100208D
:1002800088070020880300208803002070477047FB
:10029000704770477047754600F02CF8AE46050071
:1002A0006946534620F00700854618B020B5FFF791
:1002B000DBFFBDE820404FF000064FF000074FF095
:1002C00000084FF0000B21F00701AC46ACE8C00974
:1002D000ACE8C009ACE8C009ACE8C0098D4670477D
:1002E00010B50446AFF300802046BDE81040FFF78C
:1002F000A6BF00000048704728010020FEE77047B5
:100300002DE9F84FDFF8A091002209F1040A0AF163
:10031000040B4FF00F080BF1040E01260B689640FA
:100320003340B34271D14C68022C01D0122C11D150
:10033000D40800EB84073D6A5407E40E08FA04FC75
:1003400025EA0C05D1F810C00CFA04FC4CEA050CA7
:10035000C7F820C007685400032591F804C0A540E1
:100360000CF0030CAF430CFA04FC4CEA070CC0F889
:1003700000C04F68012F05D0022F03D0112F01D0EC
:10038000122F11D18768D1F80CC0AF430CFA04FCCE
:100390004CEA070CC0F808C04768B7430E79C6F3AB
:1003A000001696403E434660C668AE438D68A54041
:1003B0003543C5604C68E4006FD53C4C256845F476
:1003C00080452560246822F0030504F480440094ED
:1003D000374C2E19D6F808789407250F08FA05F43B
:1003E000A743344CA04201D100242EE0324CA0425D
:1003F00001D1012429E0314CA04201D1022424E0A2
:100400002F4CA04202D103241FE046E02D4CA04215
:1004100001D1042419E02C4CA04201D1052414E0A0
:100420002A4CA04201D106240FE0294CA04201D160
:1004300007240AE0274CA04201D1082405E0264CFD
:10044000A04201D1092400E00A24AC403C43C6F894
:100450000848D9F800404D464E689C43F60300D545
:100460001C432C60DAF8004055464E689C43B603A6
:1004700000D51C432C60DBF800405D464E689C4371
:10048000F60200D51C432C60DEF8004075464E682D
:100490009C43B60200D51C432C60521C102AFFF46A
:1004A0003CAFBDE8F88F0000003C014044380240FA
:1004B00000300140000002400004024000080240F9
:1004C000000C0240001002400014024000180240DC
:1004D000001C024000200240002402400AB1816159
:1004E00070470904FBE700000148006870470000FE
:1004F0001400002002480168491C01607047000098
:10050000140000200B4810B5016841F4007101602F
:10051000016841F480610160016841F4807101600B
:10052000052000F03BF80F2000F006F800F015F869
:10053000002010BD003C024010B5044600F088F9D0
:100540004FF47A71B0FBF1F000F070FB002221460D
:10055000501E00F003F8002010BD7047F0B40E4BA1
:100560001B68C3F30223C3F10704042C00D904243D
:100570001D1D072D01D2002300E0DB1E012606FA17
:1005800004F56D1E0D409D409E40761E164045EAC6
:100590000601F0BC00F040BC0CED00E0064A00F0A3
:1005A000070110684FF6FF03184040EA0120034995
:1005B00008431060704700000CED00E00000FA05F1
:1005C0002DE9F8431D48016841F080510160006841
:1005D000012700F080500090380490FAA0F0DFF876
:1005E0006080B0FA80F048F82070FFF77DFF044685
:1005F0004FF47A75134E04E0FFF776FF001BA84214
:1006000013D87068C003F7D54FF4003090FAA0F00B
:10061000B0FA80F048F82070FFF766FF044607E064
:10062000FFF762FF001BA84202D90320BDE8F88350
:1006300070688003F4D50020F8E7000040380240DD
:1006400000000E42007000402DE9F05FDFF8F8A1D5
:1006500004460F46DAF80000DFF8F08100F00F02E0
:10066000C8B27A49814641F2883608F10808BA4290
:1006700061D202468AF80020DAF8000000F00F008C
:10068000B8427DD12078800707D5D8F80020A3682C
:1006900022F0F0021A43C8F800202078C0072DD0BD
:1006A000606801281AD002281BD0032819D00968D5
:1006B0008907002964DAD8F80010474621F00301C1
:1006C0000143C8F80010FFF70FFF054660680128D6
:1006D0000FD0022818D003281CD027E0096889030E
:1006E000E7E709688901E4E7FFF7FEFE401BB04237
:1006F00058D83868C0F381000128F5D188E0FFF7A9
:10070000F3FE401BB0424DD83868C0F38100022888
:10071000F5D17DE03868FFF7E7FE401BB042F9D91C
:1007200040E0FFF7E1FE401BB0423BD8386810F0D4
:100730000C0FF6D16CE02078800707D5D8F80020A0
:10074000A36822F0F0021A43C8F800202078C007FE
:100750004CD06068012828D0022829D0032827D04F
:1007600009688907002949DAD8F8002022F0030235
:100770000243C8F80020FFF7B7FE0546606800E0B6
:100780003CE001281DD0022829D0032838D0B346E8
:100790004646306810F00C0F28D0FFF7A5FE411B2D
:1007A0005945F6D90320BDE8F09F09688903D9E7C8
:1007B00009688901D6E7FFF797FE411B594502D921
:1007C000F0E7B34646463068C0F381000128F2D115
:1007D0000CE0FFF789FE411B594502D9E2E7B34619
:1007E00046463068C0F381000228F2D18AF80090B2
:1007F000DAF8000000F00F00B84209D00120D2E77B
:1008000044462068FFF770FE401BB042F9D9C9E7A3
:100810002078400707D5D8F80010E26821F4E051AD
:100820001143C8F800102078000708D5D8F8001048
:10083000226921F4604141EAC201C8F800100F208A
:10084000FFF77AFE0020AEE7003C0240003802408D
:1008500010B500F017F808490968F02292FAA2F2E0
:1008600001F0F001B2FA82F2D140044A515CC84072
:100870000349086010BD0000083802405E110008FE
:100880000000002030B51948006810F00C0118482D
:1008900012D0184C04290ED008290DD1134A121F6A
:1008A0001168136801F03F015D0247F6C07304D57B
:1008B000B4FBF1F003E0204630BDB0FBF1F011686D
:1008C000194093FAA3F3B3FA83F3D940484311686C
:1008D0004FF4403292FAA2F201F44031B2FA82F2BD
:1008E000D140491C4900B0FBF1F030BD083802404E
:1008F0000024F40040787D012DE9F84F044600788B
:10090000DFF8FCA2BF4DC0074FF0000648D0DAF870
:1009100000105046C1F38101012908D00068C0F3DE
:10092000810002280AD1281D0068400206D52868E7
:10093000800335D56068002873D031E0DFF8C492B9
:1009400009F1020989F80060FFF7CEFD074641F280
:10095000883804E0FFF7C8FDC11B41457AD82868F4
:100960008003F7D4207989F80000606860B1FFF750
:10097000BBFD074604E0FFF7B7FDC11B4145EDD8BD
:1009800028688003F7D50BE0FFF7AEFD074604E0CB
:10099000FFF7AAFDC11B4145E0D828688003F7D4C2
:1009A0002078DFF86492800744D5DAF800105046CA
:1009B00011F00C0F4FF0F80809D00068C0F3810067
:1009C00002280BD18E48001F0068400206D4286818
:1009D000800714D5E068012823D110E0E068D0B189
:1009E0000120C9F80000FFF77FFD074604E0FFF78C
:1009F0007BFDC01B6428B1D828688007F7D528681C
:100A000098FAA8F22169B2FA82F220F0F800914037
:100A1000084328600EE0C9F80060FFF765FD07464F
:100A200005E0EAE0FFF760FDC01B642812D82868E3
:100A30008007F7D42078000725D5DFF8C4817348F4
:100A4000616908F16C0881B101210160FFF74CFD7B
:100A5000074605E07EE0FFF747FDC01B642879D814
:100A6000D8F800008007F6D50DE00660FFF73CFDE2
:100A7000074604E0FFF738FDC01B64286AD8D8F8A1
:100A800000008007F6D42078400753D55C48383002
:100A9000016841F0805101600068DFF8748100F066
:100AA00080500090D8F8001041F48071C8F8001010
:100AB000FFF71AFD074604E0FFF716FDC01B642888
:100AC00048D8D8F80000C005F6D5DFF834B10BF1EE
:100AD000680B8BF80060FFF707FD074641F2883886
:100AE00004E0FFF701FDC11B41457ED8DBF80000A3
:100AF0008007F6D4207A8BF80000A06868B1FFF771
:100B0000F3FC074604E0FFF7EFFCC11B41456CD83E
:100B1000DBF800008007F6D50CE0FFF7E5FC0746A0
:100B200004E0FFF7E1FCC11B41455ED8DBF80000A3
:100B30008007F6D4A069E8B3DAF80010C1F38101A8
:100B400002295AD0022806D0C9F86060FFF7CCFC11
:100B500004464DE049E04F46C9F86060FFF7C4FC29
:100B6000064604E0FFF7C0FC801B64283DD82868D7
:100B70008001F7D4D4E90701084347F6C07191FA20
:100B8000A1F1626AB1FA81F18A40A16A4FF0FF33A4
:100B900003EB51014FF4403393FAA3F3B3FA83F319
:100BA00099400A4310434FF0706292FAA2F2B2FAEF
:100BB00082F200E01FE0E16A914008431049091FFA
:100BC000086001203866FFF78FFC044604E0FFF759
:100BD0008BFC001B642808D828688001F7D50AE040
:100BE000FFF782FC001B642802D90320BDE8F88FC0
:100BF00028688001F4D40020F8E70120F6E700001F
:100C0000083802400038024000004742800E474248
:100C1000007000404FF0E0210428086903D020F064
:100C200004000861704740F00400FAE710B5401E68
:100C3000B0F1807F01D3012010BD4FF0E02460614E
:100C40000F21601700F0E8F80020A0610720206164
:100C5000002010BD704790F83900704738B5016822
:100C600004460868CA68C0F3000002F4807238B114
:100C700032B1086848680090E06B40F00100E06322
:100C800008684A69C0F3400002F0010238B132B18D
:100C9000086848680090E06B40F00400E063086872
:100CA0004A69C0F3800002F0010238B132B108682D
:100CB00048680090E06B40F00200E06308684A6911
:100CC000C0F3C00002F0010238B132B108684868D0
:100CD0000090E06B40F00800E0630868C968C0F36A
:100CE000401001F0200118B111B1204600F014F9B4
:100CF00020680168C068C1F3C01100F0800019B11C
:100D000010B1204600F05BF921680868CA68C0F39A
:100D1000801002F04002012568B162B1CA68204625
:100D200022F04002CA6094F8391032290CD080F8C1
:100D3000395000F06DF8E06B002804D084F8395089
:100D40002046FFF787FF38BD222180F83910F0E7F1
:100D500090F83930012B01D0122B2BD131B32AB3AB
:100D600090F83830012B25D0012380F8383081628B
:100D70008285C2850022C26390F83910122917D0EB
:100D8000222180F839100168CB6843F48073CB606E
:100D900001684B6943F001034B6180F8382000681B
:100DA000C16841F02001C1600020704701207047F8
:100DB0003221E6E70220704730B5006811498842C9
:100DC0000CD1114A5088010408D411464404097812
:100DD0004FF0000306D50A2901D0538030BD40F4FE
:100DE00000400DE00D2909D0C0F30D04074D401C53
:100DF00080B229555080C728EFD830BD40F48040DC
:100E0000508030BD001001401C0000202000002058
:100E10007047FEE7FEE770470907090E002806DA6B
:100E200000F00F0000F1E02080F8141D704700F181
:100E3000E02080F8001470477047704770B51E4C72
:100E400092B00025266846F080562660246804F09B
:100E500080541194194C266846F440462660246854
:100E60000DF1240C04F440441194012400940194E5
:100E7000022406948CE80D006605CDE907616846FA
:100E8000FFF73AFD00B1FEE7FFF79AFB00B1FEE77E
:100E90000CA90F2081E831004FF4A0500F904FF4BF
:100EA0008050109005210CA8FFF7CEFB002800D041
:100EB000FEE712B070BD00004038024000700040F4
:100EC000FFF718BB1048016841F4700101600F483A
:100ED000016841F0010101600C4A002108321160F3
:100EE00002680B4B1A400260031D0A4A1A6002682E
:100EF00022F48022026005480C3001600249580645
:100F0000803908607047000088ED00E0003802403A
:100F1000FFFFF6FE1030002410B590F8391022299A
:100F200003D0322901D0022010BD8168B1F5805F65
:100F300011D00169002901681FD0496801F07F03C1
:100F4000816A4A1C82620B70C18D491E0904090C1A
:100F5000C18518D02FE00269816A002A02685268B0
:100F600005D0D2B20A80816A491C8162ECE7C2F3E3
:100F700008020A80816A891CF7E74A68816A4B1C6B
:100F800083620A70E0E70168CA6822F02002CA6042
:100F900090F83910322910D00168CA6822F48072A2
:100FA000CA6001684A6922F001024A61012180F8A1
:100FB0003910FFF701FF002010BD1221F7E790F86C
:100FC0003910122903D0322901D0022070478168DC
:100FD000B1F5805F016A0BD04A1C02620268097891
:100FE0005160C18C491E0904090CC1840ED017E060
:100FF00009880268C1F30801516001690029016A8A
:1010000002D0491C0162ECE7891CFBE70168CA6851
:1010100022F08002CA600068C16841F04001C160EE
:101020000020704770B500240C4D0D48FFF716FEE8
:1010300002E0641CAC4204D80948FFF70CFE01280A
:10104000F7D1002402E0641CAC4206D80122054915
:101050000348FFF77DFE0028F5D170BDFFFF0100BA
:10106000E80000201C000020FEE7704710B5044691
:101070000420FFF7CFFD0148046010BD18000020D8
:1010800070B5054600244FF47A7603E0304600F050
:1010900005F8641CAC42F9D370BD000070B54FF088
:1010A000E02500216C69094AAB6912685043AA69BE
:1010B0009A42FCD002D2A3EB020302E0A4EB0206A8
:1010C0003344194413468142F1D370BD1800002007
:1010D00086B0FFF717FA0823022219214FF4B470E3
:1010E000FFF7ACFEB420FFF7C1FF1848016841F0DC
:1010F000020101600068012100F002000590032058
:10110000CDE90210CDE90001114C69462046FFF7F8
:10111000F7F84FF4FA75002201212046FFF7DEF9B7
:10112000002202212046FFF7D9F92846FFF7A8FF41
:10113000012211462046FFF7D1F901220221204663
:10114000FFF7CCF92846FFF79BFFE4E73038024071
:10115000000402404FF04070E1EE100A70470000BA
:10116000000001020304010203040607080900004D
:10117000901100080000002020000000E801000895
:10118000B0110008200000206807000004020008D9
:101190000024F4000000000000000000010203042D
:1011A0000607080900000000000000000000000021
:04000005080001AD41
:00000001FF
